{
  "contractName": "SimpleStorage",
  "abi": [
    {
      "inputs": [],
      "payable": false,
      "stateMutability": "nonpayable",
      "type": "constructor"
    },
    {
      "constant": false,
      "inputs": [],
      "name": "joinGame",
      "outputs": [],
      "payable": false,
      "stateMutability": "nonpayable",
      "type": "function"
    },
    {
      "constant": false,
      "inputs": [],
      "name": "resetBoard",
      "outputs": [],
      "payable": false,
      "stateMutability": "nonpayable",
      "type": "function"
    },
    {
      "constant": false,
      "inputs": [
        {
          "name": "place",
          "type": "uint256"
        }
      ],
      "name": "doMove",
      "outputs": [
        {
          "name": "",
          "type": "string"
        }
      ],
      "payable": false,
      "stateMutability": "nonpayable",
      "type": "function"
    },
    {
      "constant": true,
      "inputs": [],
      "name": "checkWinner",
      "outputs": [
        {
          "name": "",
          "type": "uint256"
        },
        {
          "name": "",
          "type": "string"
        }
      ],
      "payable": false,
      "stateMutability": "view",
      "type": "function"
    },
    {
      "constant": true,
      "inputs": [],
      "name": "current",
      "outputs": [
        {
          "name": "",
          "type": "string"
        },
        {
          "name": "",
          "type": "string"
        }
      ],
      "payable": false,
      "stateMutability": "view",
      "type": "function"
    }
  ],
  "bytecode": "0x60606040526009604051805910620000145750595b9080825280602002602001820160405250600090805190602001906200003c92919062000220565b506000600355600060045561010060405190810160405280606060405190810160405280600060ff168152602001600160ff168152602001600260ff168152508152602001606060405190810160405280600360ff168152602001600460ff168152602001600560ff168152508152602001606060405190810160405280600660ff168152602001600760ff168152602001600860ff168152508152602001606060405190810160405280600060ff168152602001600360ff168152602001600660ff168152508152602001606060405190810160405280600160ff168152602001600460ff168152602001600760ff168152508152602001606060405190810160405280600260ff168152602001600560ff168152602001600860ff168152508152602001606060405190810160405280600060ff168152602001600460ff168152602001600860ff168152508152602001606060405190810160405280600260ff168152602001600460ff168152602001600660ff168152508152506005906008620001cc92919062000272565b503415620001d957600080fd5b33600160006101000a81548173ffffffffffffffffffffffffffffffffffffffff021916908373ffffffffffffffffffffffffffffffffffffffff160217905550620003a7565b8280548282559060005260206000209081019282156200025f579160200282015b828111156200025e57825182559160200191906001019062000241565b5b5090506200026e9190620002d4565b5090565b828054828255906000526020600020908101928215620002c1579160200282015b82811115620002c057825182906003620002af929190620002fc565b509160200191906001019062000293565b5b509050620002d0919062000353565b5090565b620002f991905b80821115620002f5576000816000905550600101620002db565b5090565b90565b82805482825590600052602060002090810192821562000340579160200282015b828111156200033f578251829060ff169055916020019190600101906200031d565b5b5090506200034f9190620002d4565b5090565b6200038191905b808211156200037d576000818162000373919062000384565b506001016200035a565b5090565b90565b5080546000825590600052602060002090810190620003a49190620002d4565b50565b610d6180620003b76000396000f30060606040526004361061006d576000357c0100000000000000000000000000000000000000000000000000000000900463ffffffff168063455a2939146100725780639fa6a6e314610087578063ad38867e14610181578063b8bc70af14610216578063d4f77b1c146102b2575b600080fd5b341561007d57600080fd5b6100856102c7565b005b341561009257600080fd5b61009a610307565b604051808060200180602001838103835285818151815260200191508051906020019080838360005b838110156100de5780820151818401526020810190506100c3565b50505050905090810190601f16801561010b5780820380516001836020036101000a031916815260200191505b50838103825284818151815260200191508051906020019080838360005b83811015610144578082015181840152602081019050610129565b50505050905090810190601f1680156101715780820380516001836020036101000a031916815260200191505b5094505050505060405180910390f35b341561018c57600080fd5b61019461067e565b6040518083815260200180602001828103825283818151815260200191508051906020019080838360005b838110156101da5780820151818401526020810190506101bf565b50505050905090810190601f1680156102075780820380516001836020036101000a031916815260200191505b50935050505060405180910390f35b341561022157600080fd5b61023760048080359060200190919050506108e9565b6040518080602001828103825283818151815260200191508051906020019080838360005b8381101561027757808201518184015260208101905061025c565b50505050905090810190601f1680156102a45780820380516001836020036101000a031916815260200191505b509250505060405180910390f35b34156102bd57600080fd5b6102c5610b7f565b005b60096040518059106102d65750595b9080825280602002602001820160405250600090805190602001906102fc929190610c73565b506000600481905550565b61030f610cc0565b610317610cc0565b6000610321610cc0565b610329610cd4565b610331610ce8565b600061033b61067e565b94509450600b60405180591061034e5750595b9080825280601f01601f1916602001820160405250925060036040518059106103745750595b908082528060200260200182016040525091507f2d000000000000000000000000000000000000000000000000000000000000008260008151811015156103b757fe5b906020019060200201907effffffffffffffffffffffffffffffffffffffffffffffffffffffffffffff191690817effffffffffffffffffffffffffffffffffffffffffffffffffffffffffffff1916815250507f580000000000000000000000000000000000000000000000000000000000000082600181518110151561043b57fe5b906020019060200201907effffffffffffffffffffffffffffffffffffffffffffffffffffffffffffff191690817effffffffffffffffffffffffffffffffffffffffffffffffffffffffffffff1916815250507f4f000000000000000000000000000000000000000000000000000000000000008260028151811015156104bf57fe5b906020019060200201907effffffffffffffffffffffffffffffffffffffffffffffffffffffffffffff191690817effffffffffffffffffffffffffffffffffffffffffffffffffffffffffffff1916815250507f7c0000000000000000000000000000000000000000000000000000000000000083600381518110151561054357fe5b9060200101907effffffffffffffffffffffffffffffffffffffffffffffffffffffffffffff1916908160001a9053507f7c000000000000000000000000000000000000000000000000000000000000008360078151811015156105a357fe5b9060200101907effffffffffffffffffffffffffffffffffffffffffffffffffffffffffffff1916908160001a905350600090505b600981101561066c57816000828154811015156105f157fe5b90600052602060002090015481518110151561060957fe5b906020019060200201518360038381151561062057fe5b04830181518110151561062f57fe5b9060200101907effffffffffffffffffffffffffffffffffffffffffffffffffffffffffffff1916908160001a90535080806001019150506105d8565b83838090509650965050505050509091565b6000610688610cc0565b6000610692610cfc565b600060045411156106b4576004546106ab600454610bc2565b935093506108e3565b600091505b60088210156108a3576005828154811015156106d157fe5b906000526020600020900180548060200260200160405190810160405280929190818152602001828054801561072657602002820191906000526020600020905b815481526020019060010190808311610712575b5050505050905060008082600081518110151561073f57fe5b9060200190602002015181548110151561075557fe5b906000526020600020900154141580156107d25750600081600181518110151561077b57fe5b9060200190602002015181548110151561079157fe5b90600052602060002090015460008260008151811015156107ae57fe5b906020019060200201518154811015156107c457fe5b906000526020600020900154145b8015610841575060008160028151811015156107ea57fe5b9060200190602002015181548110151561080057fe5b906000526020600020900154600082600081518110151561081d57fe5b9060200190602002015181548110151561083357fe5b906000526020600020900154145b1561089657600081600081518110151561085757fe5b9060200190602002015181548110151561086d57fe5b90600052602060002090015460048190555060045461088d600454610bc2565b935093506108e3565b81806001019250506106b9565b60008090506040805190810160405280600b81526020017f4e6f2077696e6e6572732e000000000000000000000000000000000000000000815250935093505b50509091565b6108f1610cc0565b60006108fb610cc0565b61090361067e565b91509150600082111561091857809250610b78565b600060035414156109bc57600160009054906101000a900473ffffffffffffffffffffffffffffffffffffffff1673ffffffffffffffffffffffffffffffffffffffff163373ffffffffffffffffffffffffffffffffffffffff161415156109b7576040805190810160405280601481526020017f796f7520617265206e6f7420706c6179657220310000000000000000000000008152509250610b78565b610a5d565b60016003541415610a5c57600260009054906101000a900473ffffffffffffffffffffffffffffffffffffffff1673ffffffffffffffffffffffffffffffffffffffff163373ffffffffffffffffffffffffffffffffffffffff16141515610a5b576040805190810160405280601481526020017f796f7520617265206e6f7420706c6179657220320000000000000000000000008152509250610b78565b5b5b6000841080610a6d575060098410155b15610aaf576040805190810160405280601081526020017f6e6f74206f6e2074686520626f617264000000000000000000000000000000008152509250610b78565b60008085815481101515610abf57fe5b906000526020600020900154141515610b0f576040805190810160405280601081526020017f616c7265616479206f63637570696564000000000000000000000000000000008152509250610b78565b600160035401600085815481101515610b2457fe5b9060005260206000209001819055506003546001036003819055506040805190810160405280600281526020017f4f4b00000000000000000000000000000000000000000000000000000000000081525092505b5050919050565b33600260006101000a81548173ffffffffffffffffffffffffffffffffffffffff021916908373ffffffffffffffffffffffffffffffffffffffff160217905550565b610bca610cc0565b60016004541415610c12576040805190810160405280601381526020017f57696e6e657220697320706c61796572203121000000000000000000000000008152509050610c6e565b60026004541415610c5a576040805190810160405280601381526020017f57696e6e657220697320706c61796572203221000000000000000000000000008152509050610c6e565b602060405190810160405280600081525090505b919050565b828054828255906000526020600020908101928215610caf579160200282015b82811115610cae578251825591602001919060010190610c93565b5b509050610cbc9190610d10565b5090565b602060405190810160405280600081525090565b602060405190810160405280600081525090565b602060405190810160405280600081525090565b602060405190810160405280600081525090565b610d3291905b80821115610d2e576000816000905550600101610d16565b5090565b905600a165627a7a72305820bb2d5df07996aba0effdcdfad255ec19006bd5dd63e8b6d2cccf6043213bfcca0029",
  "source": "pragma solidity ^0.4.18;\n\ncontract SimpleStorage {\n  uint[] board = new uint[](9);\n    address player1;\n    address player2;\n    uint start = 0;\n    uint winner = 0;\n\n    function SimpleStorage(){\n        player1 = msg.sender;\n    }\n    \n    function joinGame(){\n        player2 = msg.sender;\n    }\n\n    function resetBoard() {\n      board = new uint[](9);\n      winner = 0;\n    }\n    \n    function doMove(uint place) returns (string){\n        \n        var (winner, message) = checkWinner();\n        if (winner > 0) {\n            return message;\n        }\n        \n        // correct users is on turn\n        if(start == 0){\n            if(msg.sender != player1) return \"you are not player 1\";\n        }else if(start == 1){\n            if(msg.sender != player2) return \"you are not player 2\";\n        }\n        \n        // is on the board\n        if(place < 0 || place >= 9) return \"not on the board\";\n        \n        // Is not already set\n        if(board[place] != 0) return \"already occupied\";\n        \n        board[place] = start+1;\n        start = 1- start;\n        \n        \n        return \"OK\";   \n    }\n    \n    function winningMsg(uint winningPlayer) private returns (string) {\n        if (winner == 1) {\n            return \"Winner is player 1!\";\n        } \n        if (winner == 2) {\n            return \"Winner is player 2!\";\n        }\n        \n        return \"\";\n    }\n\n    \n    uint[][] tests = [[0,1,2],[3,4,5],[6,7,8], [0,3,6],[1,4,7],[2,5,8], [0,4,8],[2,4,6]  ];\n    // 0 1 2\n    // 3 4 5\n    // 6 7 8\n    function checkWinner() constant returns (uint, string){\n        if (winner > 0) {\n            return (winner, winningMsg(winner));\n        }\n        \n        for(uint i =0; i < 8;i++){\n            uint[] memory b = tests[i];\n            if(board[b[0]] != 0 && board[b[0]] == board[b[1]] && board[b[0]] == board[b[2]]) {\n                winner = board[b[0]];\n                return (winner, winningMsg(winner)); \n            }\n        }\n        \n        return (0, \"No winners.\");\n    }\n    \n    function current() constant returns(string, string) {\n        var (winningPlayer, message) = checkWinner();\n        \n        bytes memory out = new bytes(11);\n        byte[] memory signs = new byte[](3);\n        signs[0] = \"-\";\n        signs[1] = \"X\";\n        signs[2] = \"O\";\n        bytes(out)[3] = \"|\";\n        bytes(out)[7] = \"|\";\n        \n        for(uint i = 0; i < 9; i++){\n            bytes(out)[i + i/3] = signs[board[i]];\n        }\n        \n        return (message, string(out));\n    }\n\n}\n",
  "sourcePath": "/Users/phillip/_Code/_Croject/_Crypto/18Q1_Crypto_Heroes/tictactoe2/contracts/SimpleStorage.sol",
  "compiler": {
    "name": "solc",
    "version": "0.4.19+commit.c4cbbb05.Emscripten.clang"
  },
  "schemaVersion": "1.0.1",
  "updatedAt": "2018-02-10T22:53:58.780Z"
}