{
  "contractName": "Tictactoe",
  "abi": [
    {
      "inputs": [],
      "payable": false,
      "stateMutability": "nonpayable",
      "type": "constructor"
    },
    {
      "constant": true,
      "inputs": [],
      "name": "getPlayer1",
      "outputs": [
        {
          "name": "",
          "type": "address"
        }
      ],
      "payable": false,
      "stateMutability": "view",
      "type": "function"
    },
    {
      "constant": true,
      "inputs": [],
      "name": "getBoardSize",
      "outputs": [
        {
          "name": "",
          "type": "uint256"
        }
      ],
      "payable": false,
      "stateMutability": "view",
      "type": "function"
    },
    {
      "constant": true,
      "inputs": [],
      "name": "getBoardStatus",
      "outputs": [
        {
          "name": "",
          "type": "string"
        }
      ],
      "payable": false,
      "stateMutability": "view",
      "type": "function"
    }
  ],
  "bytecode": "0x6060604052341561000f57600080fd5b336000806101000a81548173ffffffffffffffffffffffffffffffffffffffff021916908373ffffffffffffffffffffffffffffffffffffffff1602179055506040805190810160405280600181526020017f58000000000000000000000000000000000000000000000000000000000000008152506002600060098110151561009557fe5b0190805190602001906100a99291906100af565b50610154565b828054600181600116156101000203166002900490600052602060002090601f016020900481019282601f106100f057805160ff191683800117855561011e565b8280016001018555821561011e579182015b8281111561011d578251825591602001919060010190610102565b5b50905061012b919061012f565b5090565b61015191905b8082111561014d576000816000905550600101610135565b5090565b90565b610291806101636000396000f300606060405260043610610057576000357c0100000000000000000000000000000000000000000000000000000000900463ffffffff16806301ab2a661461005c5780631668dbc3146100b157806365ca0d52146100da575b600080fd5b341561006757600080fd5b61006f610168565b604051808273ffffffffffffffffffffffffffffffffffffffff1673ffffffffffffffffffffffffffffffffffffffff16815260200191505060405180910390f35b34156100bc57600080fd5b6100c4610191565b6040518082815260200191505060405180910390f35b34156100e557600080fd5b6100ed61019a565b6040518080602001828103825283818151815260200191508051906020019080838360005b8381101561012d578082015181840152602081019050610112565b50505050905090810190601f16801561015a5780820380516001836020036101000a031916815260200191505b509250505060405180910390f35b60008060009054906101000a900473ffffffffffffffffffffffffffffffffffffffff16905090565b60006009905090565b6101a2610251565b600260006009811015156101b257fe5b018054600181600116156101000203166002900480601f0160208091040260200160405190810160405280929190818152602001828054600181600116156101000203166002900480156102475780601f1061021c57610100808354040283529160200191610247565b820191906000526020600020905b81548152906001019060200180831161022a57829003601f168201915b5050505050905090565b6020604051908101604052806000815250905600a165627a7a723058203677334140522c74cfbd99873a780b08b17ee1493576de23338fc65472aa230d0029",
  "source": "pragma solidity ^0.4.4;\n\ncontract Tictactoe {\n\n  //address[2][9];\n  address player1;\n  address player2;\n  string[9] board;  //First dimension is for the players (Only first two), Last dimension is for the board \n\n  function Tictactoe() public {\n    // constructor\n    player1 = msg.sender;\n    board[0] = \"X\";\n  }\n\n  function getPlayer1() public constant returns(address) {\n    return player1;\n  }\n/*\n  function getStatus() public constant returns (string) {\n    return \"Hello!\";\n  }\n*/\n\n  function getBoardSize() public constant returns(uint) {\n    return board.length;\n  }\n\n  function getBoardStatus() public constant returns(string) {\n    return board[0];\n  }\n}\n",
  "sourcePath": "/Users/phillip/_Code/_Croject/_Crypto/18Q1_Crypto_Heroes/tictactoe2/contracts/Tictactoe.sol",
  "compiler": {
    "name": "solc",
    "version": "0.4.19+commit.c4cbbb05.Emscripten.clang"
  },
  "schemaVersion": "1.0.1",
  "updatedAt": "2018-02-10T22:53:56.692Z"
}